{
    "contractName": "Lottery",
    "abi": [
        {
            "inputs": [],
            "stateMutability": "nonpayable",
            "type": "constructor"
        },
        {
            "inputs": [],
            "name": "BuyTickets",
            "outputs": [],
            "stateMutability": "payable",
            "type": "function"
        },
        {
            "inputs": [],
            "name": "CurrentWinningReward",
            "outputs": [
                {
                    "internalType": "uint256",
                    "name": "",
                    "type": "uint256"
                }
            ],
            "stateMutability": "view",
            "type": "function"
        },
        {
            "inputs": [],
            "name": "DrawWinnerTicket",
            "outputs": [],
            "stateMutability": "nonpayable",
            "type": "function"
        },
        {
            "inputs": [],
            "name": "IsWinner",
            "outputs": [
                {
                    "internalType": "bool",
                    "name": "",
                    "type": "bool"
                }
            ],
            "stateMutability": "view",
            "type": "function"
        },
        {
            "inputs": [],
            "name": "RefundAll",
            "outputs": [],
            "stateMutability": "nonpayable",
            "type": "function"
        },
        {
            "inputs": [],
            "name": "RemainingTickets",
            "outputs": [
                {
                    "internalType": "uint256",
                    "name": "",
                    "type": "uint256"
                }
            ],
            "stateMutability": "view",
            "type": "function"
        },
        {
            "inputs": [],
            "name": "WithdrawCommission",
            "outputs": [],
            "stateMutability": "nonpayable",
            "type": "function"
        },
        {
            "inputs": [],
            "name": "WithdrawWinnings",
            "outputs": [],
            "stateMutability": "nonpayable",
            "type": "function"
        },
        {
            "inputs": [],
            "name": "checkWinningsAmount",
            "outputs": [
                {
                    "internalType": "uint256",
                    "name": "",
                    "type": "uint256"
                }
            ],
            "stateMutability": "view",
            "type": "function"
        },
        {
            "inputs": [],
            "name": "duration",
            "outputs": [
                {
                    "internalType": "uint256",
                    "name": "",
                    "type": "uint256"
                }
            ],
            "stateMutability": "view",
            "type": "function"
        },
        {
            "inputs": [],
            "name": "expiration",
            "outputs": [
                {
                    "internalType": "uint256",
                    "name": "",
                    "type": "uint256"
                }
            ],
            "stateMutability": "view",
            "type": "function"
        },
        {
            "inputs": [],
            "name": "getTickets",
            "outputs": [
                {
                    "internalType": "address[]",
                    "name": "",
                    "type": "address[]"
                }
            ],
            "stateMutability": "view",
            "type": "function"
        },
        {
            "inputs": [
                {
                    "internalType": "address",
                    "name": "addr",
                    "type": "address"
                }
            ],
            "name": "getWinningsForAddress",
            "outputs": [
                {
                    "internalType": "uint256",
                    "name": "",
                    "type": "uint256"
                }
            ],
            "stateMutability": "view",
            "type": "function"
        },
        {
            "inputs": [],
            "name": "lastWinner",
            "outputs": [
                {
                    "internalType": "address",
                    "name": "",
                    "type": "address"
                }
            ],
            "stateMutability": "view",
            "type": "function"
        },
        {
            "inputs": [],
            "name": "lastWinnerAmount",
            "outputs": [
                {
                    "internalType": "uint256",
                    "name": "",
                    "type": "uint256"
                }
            ],
            "stateMutability": "view",
            "type": "function"
        },
        {
            "inputs": [],
            "name": "lotteryOperator",
            "outputs": [
                {
                    "internalType": "address",
                    "name": "",
                    "type": "address"
                }
            ],
            "stateMutability": "view",
            "type": "function"
        },
        {
            "inputs": [],
            "name": "maxTickets",
            "outputs": [
                {
                    "internalType": "uint256",
                    "name": "",
                    "type": "uint256"
                }
            ],
            "stateMutability": "view",
            "type": "function"
        },
        {
            "inputs": [],
            "name": "operatorTotalCommission",
            "outputs": [
                {
                    "internalType": "uint256",
                    "name": "",
                    "type": "uint256"
                }
            ],
            "stateMutability": "view",
            "type": "function"
        },
        {
            "inputs": [],
            "name": "restartDraw",
            "outputs": [],
            "stateMutability": "nonpayable",
            "type": "function"
        },
        {
            "inputs": [],
            "name": "ticketCommission",
            "outputs": [
                {
                    "internalType": "uint256",
                    "name": "",
                    "type": "uint256"
                }
            ],
            "stateMutability": "view",
            "type": "function"
        },
        {
            "inputs": [],
            "name": "ticketPrice",
            "outputs": [
                {
                    "internalType": "uint256",
                    "name": "",
                    "type": "uint256"
                }
            ],
            "stateMutability": "view",
            "type": "function"
        },
        {
            "inputs": [
                {
                    "internalType": "uint256",
                    "name": "",
                    "type": "uint256"
                }
            ],
            "name": "tickets",
            "outputs": [
                {
                    "internalType": "address",
                    "name": "",
                    "type": "address"
                }
            ],
            "stateMutability": "view",
            "type": "function"
        },
        {
            "inputs": [
                {
                    "internalType": "address",
                    "name": "",
                    "type": "address"
                }
            ],
            "name": "winnings",
            "outputs": [
                {
                    "internalType": "uint256",
                    "name": "",
                    "type": "uint256"
                }
            ],
            "stateMutability": "view",
            "type": "function"
        }
    ],
    "bytecode": "60806040525f600255348015610013575f80fd5b50600180546001600160a01b0319163317905561003261070842610039565b5f5561005e565b8082018082111561005857634e487b7160e01b5f52601160045260245ffd5b92915050565b610e078061006b5f395ff3fe60806040526004361061013c575f3560e01c806371827b7b116100b3578063ba946d791161006d578063ba946d791461030b578063c6944fa014610320578063dd64e53414610334578063ea3a149914610368578063f261326914610393578063fe188184146103a7575f80fd5b806371827b7b1461028657806391d8b14e1461029a57806393a563b5146102a257806396c85ef3146102b65780639b894703146102e3578063a88f4672146102f7575f80fd5b80634665096d116101045780634665096d146101cd5780634788af7c146101e15780634ed02622146101f557806350b44712146102165780635a58acdd1461024d5780636032a4f91461026c575f80fd5b806306f7f3bf146101405780630789c607146101685780630fb5a6b4146101885780631209b1f61461019d57806335580df2146101b7575b5f80fd5b34801561014b575f80fd5b5061015560045481565b6040519081526020015b60405180910390f35b348015610173575f80fd5b50335f90815260056020526040902054610155565b348015610193575f80fd5b5061015561070881565b3480156101a8575f80fd5b50610155662386f26fc1000081565b3480156101c2575f80fd5b506101cb6103c6565b005b3480156101d8575f80fd5b506101555f5481565b3480156101ec575f80fd5b506101cb610433565b348015610200575f80fd5b506102096105f5565b60405161015f9190610ba4565b348015610221575f80fd5b50610235610230366004610bf0565b610655565b6040516001600160a01b03909116815260200161015f565b348015610258575f80fd5b50600154610235906001600160a01b031681565b348015610277575f80fd5b5061015566038d7ea4c6800081565b348015610291575f80fd5b506101cb61067d565b6101cb610711565b3480156102ad575f80fd5b50610155610832565b3480156102c1575f80fd5b50335f908152600560205260409020541515604051901515815260200161015f565b3480156102ee575f80fd5b50610155606481565b348015610302575f80fd5b506101cb610847565b348015610316575f80fd5b5061015560025481565b34801561032b575f80fd5b5061015561094b565b34801561033f575f80fd5b5061015561034e366004610c07565b6001600160a01b03165f9081526005602052604090205490565b348015610373575f80fd5b50610155610382366004610c07565b60056020525f908152604090205481565b34801561039e575f80fd5b506101cb610962565b3480156103b2575f80fd5b50600354610235906001600160a01b031681565b6001546001600160a01b031633146103f95760405162461bcd60e51b81526004016103f090610c34565b60405180910390fd5b600280545f918290556040513392839183156108fc0291849190818181858888f1935050505015801561042e573d5f803e3d5ffd5b505050565b6001546001600160a01b0316331461045d5760405162461bcd60e51b81526004016103f090610c34565b6006546104ac5760405162461bcd60e51b815260206004820152601960248201527f4e6f207469636b6574732077657265207075726368617365640000000000000060448201526064016103f0565b6006545f906104bb9043610c8a565b60408051426020820152914090820181905291505f9060600160408051601f1981840301815291905280516020909101206006549091505f906104fe9083610cb1565b90505f6006828154811061051457610514610cc4565b5f91825260209091200154600380546001600160a01b0319166001600160a01b039092169182179055905061055766038d7ea4c68000662386f26fc10000610c8a565b6006546105649190610cd8565b6001600160a01b0382165f908152600560205260408120805490919061058b908490610cef565b90915550506001600160a01b0381165f908152600560205260409020546004556006546105c09066038d7ea4c6800090610cd8565b60025f8282546105d09190610cef565b909155506105e1905060065f610b6e565b6105ed61070842610cef565b5f5550505050565b6060600680548060200260200160405190810160405280929190818152602001828054801561064b57602002820191905f5260205f20905b81546001600160a01b0316815260019091019060200180831161062d575b5050505050905090565b60068181548110610664575f80fd5b5f918252602090912001546001600160a01b0316905081565b335f908152600560205260409020546106d15760405162461bcd60e51b815260206004820152601660248201527521b0b63632b91034b9903737ba1030903bb4b73732b960511b60448201526064016103f0565b335f8181526005602052604080822080549083905590519091839183156108fc0291849190818181858888f1935050505015801561042e573d5f803e3d5ffd5b610722662386f26fc1000034610cb1565b15610733662386f26fc10000610a06565b6040516020016107439190610d24565b604051602081830303815290604052906107705760405162461bcd60e51b81526004016103f09190610d78565b505f610783662386f26fc1000034610daa565b905061078d610832565b8111156107dc5760405162461bcd60e51b815260206004820152601d60248201527f4e6f7420656e6f756768207469636b65747320617661696c61626c652e00000060448201526064016103f0565b5f5b8181101561082e5760068054600181810183555f929092527ff652222313e28459528d920b65115c16c04f3efc82aaedc97be59f3f377c0d3f0180546001600160a01b03191633179055016107de565b5050565b6006545f90610842906064610c8a565b905090565b5f544210156108985760405162461bcd60e51b815260206004820152601b60248201527f746865206c6f7474657279206e6f74206578706972656420796574000000000060448201526064016103f0565b5f5b60065481101561093d575f600682815481106108b8576108b8610cc4565b5f918252602082200154600680546001600160a01b03909216935090849081106108e4576108e4610cc4565b5f918252602082200180546001600160a01b0319166001600160a01b0393841617905560405191831691662386f26fc100009082818181858883f19350505050158015610933573d5f803e3d5ffd5b505060010161089a565b5061094960065f610b6e565b565b6006545f9061084290662386f26fc1000090610cd8565b6001546001600160a01b0316331461098c5760405162461bcd60e51b81526004016103f090610c34565b600654156109eb5760405162461bcd60e51b815260206004820152602660248201527f43616e6e6f7420526573746172742044726177206173204472617720697320696044820152656e20706c617960d01b60648201526084016103f0565b6109f660065f610b6e565b610a0261070842610cef565b5f55565b60605f610a1283610a96565b60010190505f8167ffffffffffffffff811115610a3157610a31610dbd565b6040519080825280601f01601f191660200182016040528015610a5b576020820181803683370190505b5090508181016020015b5f19016f181899199a1a9b1b9c1cb0b131b232b360811b600a86061a8153600a8504945084610a6557509392505050565b5f8072184f03e93ff9f4daa797ed6e38ed64bf6a1f0160401b8310610ad45772184f03e93ff9f4daa797ed6e38ed64bf6a1f0160401b830492506040015b6d04ee2d6d415b85acef81000000008310610b00576d04ee2d6d415b85acef8100000000830492506020015b662386f26fc100008310610b1e57662386f26fc10000830492506010015b6305f5e1008310610b36576305f5e100830492506008015b6127108310610b4a57612710830492506004015b60648310610b5c576064830492506002015b600a8310610b68576001015b92915050565b5080545f8255905f5260205f2090810190610b899190610b8c565b50565b5b80821115610ba0575f8155600101610b8d565b5090565b602080825282518282018190525f9190848201906040850190845b81811015610be45783516001600160a01b031683529284019291840191600101610bbf565b50909695505050505050565b5f60208284031215610c00575f80fd5b5035919050565b5f60208284031215610c17575f80fd5b81356001600160a01b0381168114610c2d575f80fd5b9392505050565b60208082526022908201527f43616c6c6572206973206e6f7420746865206c6f7474657279206f706572617460408201526137b960f11b606082015260800190565b634e487b7160e01b5f52601160045260245ffd5b81810381811115610b6857610b68610c76565b634e487b7160e01b5f52601260045260245ffd5b5f82610cbf57610cbf610c9d565b500690565b634e487b7160e01b5f52603260045260245ffd5b8082028115828204841417610b6857610b68610c76565b80820180821115610b6857610b68610c76565b5f5b83811015610d1c578181015183820152602001610d04565b50505f910152565b7f7468652076616c7565206d757374206265206d756c7469706c65206f6620000081525f8251610d5b81601e850160208701610d02565b651022ba3432b960d11b601e939091019283015250602401919050565b602081525f8251806020840152610d96816040850160208701610d02565b601f01601f19169190910160400192915050565b5f82610db857610db8610c9d565b500490565b634e487b7160e01b5f52604160045260245ffdfea26469706673582212203f12ab8c2cddb58cae96cf20986a15d1a1f99025f48d3a1b6460b523216aab0f64736f6c63430008170033",
    "sourcePath": "/Users/sophielamo/lotterytest/contracts/Lottery.sol",
    "compiler": {
        "name": "solc",
        "version": "0.8.23+commit.f704f362"
    },
    "functionHashes": {
        "BuyTickets()": "91d8b14e",
        "CurrentWinningReward()": "c6944fa0",
        "DrawWinnerTicket()": "4788af7c",
        "IsWinner()": "96c85ef3",
        "RefundAll()": "a88f4672",
        "RemainingTickets()": "93a563b5",
        "WithdrawCommission()": "35580df2",
        "WithdrawWinnings()": "71827b7b",
        "checkWinningsAmount()": "0789c607",
        "duration()": "0fb5a6b4",
        "expiration()": "4665096d",
        "getTickets()": "4ed02622",
        "getWinningsForAddress(address)": "dd64e534",
        "lastWinner()": "fe188184",
        "lastWinnerAmount()": "06f7f3bf",
        "lotteryOperator()": "5a58acdd",
        "maxTickets()": "9b894703",
        "operatorTotalCommission()": "ba946d79",
        "restartDraw()": "f2613269",
        "ticketCommission()": "6032a4f9",
        "ticketPrice()": "1209b1f6",
        "tickets(uint256)": "50b44712",
        "winnings(address)": "ea3a1499"
    },
    "gasEstimates": {
        "creation": {
            "codeDepositCost": "718200",
            "executionCost": "52179",
            "totalCost": "770379"
        },
        "external": {
            "BuyTickets()": "infinite",
            "CurrentWinningReward()": "2443",
            "DrawWinnerTicket()": "infinite",
            "IsWinner()": "2447",
            "RefundAll()": "infinite",
            "RemainingTickets()": "2447",
            "WithdrawCommission()": "infinite",
            "WithdrawWinnings()": "infinite",
            "checkWinningsAmount()": "2393",
            "duration()": "251",
            "expiration()": "2305",
            "getTickets()": "infinite",
            "getWinningsForAddress(address)": "2554",
            "lastWinner()": "2468",
            "lastWinnerAmount()": "2307",
            "lotteryOperator()": "2447",
            "maxTickets()": "294",
            "operatorTotalCommission()": "2305",
            "restartDraw()": "infinite",
            "ticketCommission()": "316",
            "ticketPrice()": "273",
            "tickets(uint256)": "4700",
            "winnings(address)": "2558"
        }
    }
}